{
  "contractName": "Counter",
  "abi": [
    {
      "constant": true,
      "inputs": [],
      "name": "count",
      "outputs": [
        {
          "name": "",
          "type": "uint256"
        }
      ],
      "payable": false,
      "stateMutability": "view",
      "type": "function"
    },
    {
      "inputs": [],
      "payable": false,
      "stateMutability": "nonpayable",
      "type": "constructor"
    },
    {
      "payable": true,
      "stateMutability": "payable",
      "type": "fallback"
    },
    {
      "anonymous": false,
      "inputs": [
        {
          "indexed": true,
          "name": "sender",
          "type": "address"
        },
        {
          "indexed": false,
          "name": "value",
          "type": "uint256"
        }
      ],
      "name": "Received",
      "type": "event"
    },
    {
      "constant": false,
      "inputs": [
        {
          "name": "amount",
          "type": "uint256"
        }
      ],
      "name": "increment",
      "outputs": [],
      "payable": false,
      "stateMutability": "nonpayable",
      "type": "function"
    }
  ],
  "bytecode": "0x60806040526000805534801561001457600080fd5b50610134806100246000396000f30060806040526004361061004c576000357c0100000000000000000000000000000000000000000000000000000000900463ffffffff16806306661abd1461009c5780637cf5dab0146100c7575b3373ffffffffffffffffffffffffffffffffffffffff167f88a5966d370b9919b20f3e2c13ff65706f196a4e32cc2c12bf57088f88525874346040518082815260200191505060405180910390a2005b3480156100a857600080fd5b506100b16100f4565b6040518082815260200191505060405180910390f35b3480156100d357600080fd5b506100f2600480360381019080803590602001909291905050506100fa565b005b60005481565b8060005401600081905550505600a165627a7a72305820d3eb699b49ef7c390e826802dc09e4f00fd33c5e31affaa4fe03daa2107a98960029",
  "source": "pragma solidity ^0.4.24;\n\ncontract Counter {\n  event Received (address indexed sender, uint value);\n  uint public count = 0;\n\n  constructor() public { }\n\n  function () payable {\n    emit Received(msg.sender, msg.value);\n  }\n\n  function increment(uint256 amount) public {\n    count = count + amount;\n  }\n}",
  "sourcePath": "/Users/matt/Development/meta-tx/example-contract/contracts/Counter.sol",
  "compiler": {
    "name": "solc",
    "version": "0.4.24+commit.e67f0147.Emscripten.clang"
  },
  "schemaVersion": "2.0.1",
  "updatedAt": "2018-09-22T23:06:50.393Z"
}