{
  "contractName": "StandardToken",
  "abi": [
    {
      "constant": false,
      "inputs": [
        {
          "name": "_to",
          "type": "address"
        },
        {
          "name": "_value",
          "type": "uint256"
        }
      ],
      "name": "transfer",
      "outputs": [
        {
          "name": "",
          "type": "bool"
        }
      ],
      "payable": false,
      "stateMutability": "nonpayable",
      "type": "function"
    }
  ],
  "bytecode": "0x608060405234801561001057600080fd5b5060da8061001f6000396000f300608060405260043610603f576000357c0100000000000000000000000000000000000000000000000000000000900463ffffffff168063a9059cbb146044575b600080fd5b348015604f57600080fd5b50608c600480360381019080803573ffffffffffffffffffffffffffffffffffffffff1690602001909291908035906020019092919050505060a6565b604051808215151515815260200191505060405180910390f35b6000929150505600a165627a7a7230582051cfa9b82ac87c5476c45bb6502519e7350188ae9fa850a0881b8dfc756000090029",
  "source": "pragma solidity ^0.4.24;\n\nimport \"openzeppelin-solidity/contracts/access/SignatureBouncer.sol\";\n\ncontract BouncerProxy is SignatureBouncer {\n  constructor() public { }\n\n  mapping(address => uint) public nonce;\n\n  event Received (address indexed sender, uint value);\n  event Forwarded (bytes signature, address sender, address to, uint value, bytes data);\n\n  // copied from\n  // https://github.com/uport-project/uport-identity/blob/develop/contracts/Proxy.sol\n  function () payable { emit Received(msg.sender, msg.value); }\n\n  function forward(bytes _signature, address _sender, address _to, uint _value, bytes _data) public {\n      bytes32 hash_output = keccak256(\n        abi.encodePacked(\n          address(this),\n          _sender,\n          _to,\n          _value,\n          _data,\n          nonce[_sender]++\n        )\n      );\n\n      // require(isValidDataHash(hash_output, _signature));\n      require(executeCall(_to, _value, _data));\n\n      emit Forwarded(_signature, _sender, _to, _value, _data);\n  }\n\n  // copied from GnosisSafe\n  // https://github.com/gnosis/gnosis-safe-contracts/blob/master/contracts/GnosisSafe.sol\n  function executeCall(address to, uint256 value, bytes data) internal returns (bool success) {\n    assembly {\n       success := call(gas, to, value, add(data, 0x20), mload(data), 0, 0)\n    }\n  }\n}\n\ncontract StandardToken {\n  function transfer(address _to,uint256 _value) public returns (bool) { }\n}\n",
  "sourcePath": "/Users/matt/Development/meta-tx/bouncer-proxy/contracts/BouncerProxy.sol",
  "compiler": {
    "name": "solc",
    "version": "0.4.24+commit.e67f0147.Emscripten.clang"
  },
  "schemaVersion": "2.0.1",
  "updatedAt": "2018-09-23T01:17:32.956Z"
}